{
  "transactions": [
    {
      "hash": "0x909efff3f14e40782c3ee12498ef23b6595b1377c899b1e1c23b626276d81559",
      "transactionType": "CALL",
      "contractName": null,
      "contractAddress": "0x4e1dcf7ad4e460cfd30791ccc4f9c8a4f820ec67",
      "function": "createProxyWithNonce(address,bytes,uint256)",
      "arguments": [
        "0x29fcB43b46531BcA003ddC8FCB67FFE91900C762",
        "0xb63e800d0000000000000000000000000000000000000000000000000000000000000100000000000000000000000000000000000000000000000000000000000000000200000000000000000000000000000000000000000000000000000000000000000000000000000000000000000000000000000000000000000000000000000180000000000000000000000000fd0732dc9e303f09fcef3a7388ad10a83459ec990000000000000000000000000000000000000000000000000000000000000000000000000000000000000000000000000000000000000000000000000000000000000000000000000000000000000000000000000000000000000000000000000000000000000000000000000000000000000000000000000000000000000003000000000000000000000000d9c92afa8a4317039e21a90eccba7b899657435200000000000000000000000065fa707895ba2d662c4a064d824cbc48f0e5b5190000000000000000000000008550c88c66df5346d74d3f982c4562d6b576c8df0000000000000000000000000000000000000000000000000000000000000000",
        "50706676912947603474991212728848300276700789775731327686307801869909948407178"
      ],
      "transaction": {
        "from": "0x8550c88c66df5346d74d3f982c4562d6b576c8df",
        "to": "0x4e1dcf7ad4e460cfd30791ccc4f9c8a4f820ec67",
        "gas": "0x6d541",
        "value": "0x0",
        "input": "0x1688f0b900000000000000000000000029fcb43b46531bca003ddc8fcb67ffe91900c7620000000000000000000000000000000000000000000000000000000000000060701af64add3f90fc0d9c4c3e1d4ac32358d8ff6901156da44844bb486f389d8a00000000000000000000000000000000000000000000000000000000000001a4b63e800d0000000000000000000000000000000000000000000000000000000000000100000000000000000000000000000000000000000000000000000000000000000200000000000000000000000000000000000000000000000000000000000000000000000000000000000000000000000000000000000000000000000000000180000000000000000000000000fd0732dc9e303f09fcef3a7388ad10a83459ec990000000000000000000000000000000000000000000000000000000000000000000000000000000000000000000000000000000000000000000000000000000000000000000000000000000000000000000000000000000000000000000000000000000000000000000000000000000000000000000000000000000000000003000000000000000000000000d9c92afa8a4317039e21a90eccba7b899657435200000000000000000000000065fa707895ba2d662c4a064d824cbc48f0e5b5190000000000000000000000008550c88c66df5346d74d3f982c4562d6b576c8df000000000000000000000000000000000000000000000000000000000000000000000000000000000000000000000000000000000000000000000000",
        "nonce": "0x0",
        "chainId": "0x279f"
      },
      "additionalContracts": [
        {
          "transactionType": "CREATE2",
          "address": "0x1c49db866c9e942f55fde7c0fc9e1f83e33aaecb",
          "initCode": "0x608060405234801561001057600080fd5b506040516101e63803806101e68339818101604052602081101561003357600080fd5b8101908080519060200190929190505050600073ffffffffffffffffffffffffffffffffffffffff168173ffffffffffffffffffffffffffffffffffffffff1614156100ca576040517f08c379a00000000000000000000000000000000000000000000000000000000081526004018080602001828103825260228152602001806101c46022913960400191505060405180910390fd5b806000806101000a81548173ffffffffffffffffffffffffffffffffffffffff021916908373ffffffffffffffffffffffffffffffffffffffff1602179055505060ab806101196000396000f3fe608060405273ffffffffffffffffffffffffffffffffffffffff600054167fa619486e0000000000000000000000000000000000000000000000000000000060003514156050578060005260206000f35b3660008037600080366000845af43d6000803e60008114156070573d6000fd5b3d6000f3fea264697066735822122003d1488ee65e08fa41e58e888a9865554c535f2c77126a82cb4c0f917f31441364736f6c63430007060033496e76616c69642073696e676c65746f6e20616464726573732070726f766964656400000000000000000000000029fcb43b46531bca003ddc8fcb67ffe91900c762"
        }
      ],
      "isFixedGasLimit": false
    }
  ],
  "receipts": [
    {
      "status": "0x1",
      "cumulativeGasUsed": "0x6d541",
      "logs": [
        {
          "address": "0x1c49db866c9e942f55fde7c0fc9e1f83e33aaecb",
          "topics": [
            "0x141df868a6331af528e38c83b7aa03edc19be66e37ae67f9285bf4f8e3c6a1a8",
            "0x0000000000000000000000004e1dcf7ad4e460cfd30791ccc4f9c8a4f820ec67"
          ],
          "data": "0x000000000000000000000000000000000000000000000000000000000000008000000000000000000000000000000000000000000000000000000000000000020000000000000000000000000000000000000000000000000000000000000000000000000000000000000000fd0732dc9e303f09fcef3a7388ad10a83459ec990000000000000000000000000000000000000000000000000000000000000003000000000000000000000000d9c92afa8a4317039e21a90eccba7b899657435200000000000000000000000065fa707895ba2d662c4a064d824cbc48f0e5b5190000000000000000000000008550c88c66df5346d74d3f982c4562d6b576c8df",
          "blockHash": "0xd3a2647672f2224dd185ea5f46c372d3d549a4570f3ac2a74b65b20edfd64d62",
          "blockNumber": "0x2be57bf",
          "blockTimestamp": "0x6a5ba8f7",
          "transactionHash": "0x909efff3f14e40782c3ee12498ef23b6595b1377c899b1e1c23b626276d81559",
          "transactionIndex": "0x1",
          "logIndex": "0x1",
          "removed": false
        },
        {
          "address": "0x4e1dcf7ad4e460cfd30791ccc4f9c8a4f820ec67",
          "topics": [
            "0x4f51faf6c4561ff95f067657e43439f0f856d97c04d9ec9070a6199ad418e235",
            "0x0000000000000000000000001c49db866c9e942f55fde7c0fc9e1f83e33aaecb"
          ],
          "data": "0x00000000000000000000000029fcb43b46531bca003ddc8fcb67ffe91900c762",
          "blockHash": "0xd3a2647672f2224dd185ea5f46c372d3d549a4570f3ac2a74b65b20edfd64d62",
          "blockNumber": "0x2be57bf",
          "blockTimestamp": "0x6a5ba8f7",
          "transactionHash": "0x909efff3f14e40782c3ee12498ef23b6595b1377c899b1e1c23b626276d81559",
          "transactionIndex": "0x1",
          "logIndex": "0x2",
          "removed": false
        }
      ],
      "logsBloom": "0x00000000000000000000000000000000000000000000000000000000000000000000000000000000000000000000000000000000000000000000000000000000000010000000000000000000000000000000000000000008000000000000200000000000000000000500000000000000000000000100000000001000000000000800000000000200000000000000000000000000000000000000000000000400000000000000000000100000000000000000000000000000000000000000000000000000000000000000000000000020000000000000000000000000000000000000080000250000000000000000100020000000000000000000000000000000",
      "type": "0x2",
      "transactionHash": "0x909efff3f14e40782c3ee12498ef23b6595b1377c899b1e1c23b626276d81559",
      "transactionIndex": "0x1",
      "blockHash": "0xd3a2647672f2224dd185ea5f46c372d3d549a4570f3ac2a74b65b20edfd64d62",
      "blockNumber": "0x2be57bf",
      "gasUsed": "0x6d541",
      "effectiveGasPrice": "0x18334c02e5",
      "from": "0x8550c88c66df5346d74d3f982c4562d6b576c8df",
      "to": "0x4e1dcf7ad4e460cfd30791ccc4f9c8a4f820ec67",
      "contractAddress": null
    }
  ],
  "libraries": [],
  "pending": [],
  "returns": {
    "0": {
      "internal_type": "address",
      "value": "0x1C49DB866c9E942f55FdE7C0Fc9E1F83E33aAeCb"
    }
  },
  "timestamp": 1784391927,
  "chain": 10143,
  "commit": "3533b73"
}